:020000040800F2
:10000000080900209D0100083B2400087315000822
:1000100039240008CD070008E12B0008000000008B
:100020000000000000000000000000006B24000839
:10003000CF070008000000003D240008B526000896
:10004000B7010008B7010008B7010008B7010008B0
:10005000B7010008B7010008B7010008B7010008A0
:10006000B7010008B7010008B7010008B701000890
:10007000B7010008B7010008B7010008B701000880
:10008000B7010008B7010008B7010008B701000870
:10009000B7010008B7010008B7010008B701000860
:1000A000B7010008B7010008B7010008B701000850
:1000B000B701000891270008B7010008B701000840
:1000C000B7010008B7010008B7010008B701000830
:1000D000B7010008B7010008B7010008B701000820
:1000E000B7010008B7010008B7010008B701000810
:1000F000B7010008B7010008B7010008B701000800
:10010000B7010008B7010008B7010008B7010008EF
:10011000B7010008B7010008B7010008B7010008DF
:10012000B7010008B7010008B7010008B7010008CF
:10013000B7010008B7010008B7010008B7010008BF
:10014000B7010008B7010008B7010008B7010008AF
:10015000B7010008B7010008B7010008B70100089F
:10016000B7010008B7010008B7010008B70100088F
:10017000B7010008B7010008B7010008000000003F
:10018000B7010008B7010008DFF80CD000F0F4FA5E
:1001900000480047813F00080809002006488047C2
:1001A00006480047FEE7FEE7FEE7FEE7FEE7FEE75C
:1001B000FEE7FEE7FEE7FEE73D27000889010008AD
:1001C0002DE9F05F0546002092469B46884606468C
:1001D000814640241BE0284641464746224600F01F
:1001E0000BFA53465A46C01A914110D3114618468D
:1001F000224600F0F2F92D1A67EB01084F4622461D
:100200000120002100F0E9F917EB00094E41201E02
:10021000A4F10104DFDC484631462A464346BDE8E6
:10022000F09FD2B201E000F8012B491EFBD27047CB
:100230000022F6E710B513460A4604461946FFF7B2
:10024000F0FF204610BD2DE9FE4F804681EA0300F5
:10025000C00F0C46009021F0004123F00045B8EBA0
:100260000200A94105D24046214690461C460B4655
:10027000024623F00040104347D0270DC7F30A0081
:10028000C3F30A510290401A019040286BDAC3F37D
:10029000130040F4801B0098924620B10023D2EB5B
:1002A000030A63EB0B0B01985946C0F1400250461C
:1002B00000F093F906460D4650465946019A00F063
:1002C000ABF910EB08006141002487EA115284EA7F
:1002D000E7731A4340D0009A62B3019A012A4FEAA9
:1002E000075215DC001B61EB02014FF0004202EAED
:1002F0000752CDE90042001C41F5801132462B46E1
:1003000000F0ABF903B0BDE8F08F40462146F9E7B5
:10031000001B61EB0201001C41F5801300185B41DA
:100320002018A2F5001747EB030140EAD570B61973
:100330006D4111E06D084FEA360645EAC0754FEA97
:100340000752001B61EB0201001C41F580114908B6
:100350004FEA30000019514132462B4603B0BDE848
:10036000F04F00F06BB90098012240000023D0EB61
:10037000020263EBE073009821464FEAE074B8EBA9
:10038000000061EB0401E9E783F000435BE781F0E3
:10039000004158E72DE9FE4F81EA030404F00044D0
:1003A00021F0004100944FF0000B23F0004350EA8D
:1003B00001045ED052EA03045BD0C3F30A54C1F3D4
:1003C0000A552C44A4F2F3340194A0FB0254C1F367
:1003D000130141F48011C3F3130343F4801301FBB1
:1003E000024400FB034E840A970A44EA815447EA18
:1003F0008357A4FB076802958D0A05FB07854FEA22
:10040000932C04FB0C542705029D4FEA065847EA3B
:100410001637B5EB08056EEB070C870E920E47EA10
:10042000811742EA8312A7FB0201B6EB0B0164EBD2
:1004300000042B0D43EA0C335E1844EB1C50DA46E3
:100440005146E7FB0201C5F313044FEA0B3343EABD
:1004500014534FEA0432019C43EA0603A4F10C044E
:100460000294009CCDE900B400F0F7F803B0BDE8B9
:10047000F08F00200146F9E72DE9F04D81EA0304F1
:1004800004F0004B21F0004514464FF0000A23F021
:10049000004150EA050220D054EA01021DD0C5F304
:1004A0000A570246C5F31303C1F31300C1F30A56FA
:1004B00040F4801543F48013A7EB0608101BD646C2
:1004C00008F2FD3873EB050002D308F1010801E0E2
:1004D00092185B41B8F1000F03DA00200146BDE835
:1004E000F08D00204FF48011064684460EE0171B65
:1004F00073EB050705D3121B63EB050306434CEAB8
:10050000010C49084FEA300092185B4150EA01079C
:10051000EDD152EA030012D082EA040083EA050119
:10052000084305D0101BAB4106D20122002306E090
:1005300000224FF0004302E06FF0010253101AEB6B
:1005400006004CEB085110EB0A0041EB0B01BDE833
:10055000F04D00F073B8C1F30A5210B5C1F31301A6
:1005600040F2FF3341F480119A4201DA002010BDBD
:1005700040F233439A42A2F2334203DC524200F08B
:100580003BF810BD904010BD00F0004230F000403C
:100590000AD0C10D01F56071C0F3160042EA0151A5
:1005A000C20840071143704700200146704730B52C
:1005B0000B46014600202022012409E021FA02F521
:1005C0009D4205D303FA02F5491B04FA02F52844BB
:1005D000151EA2F10102F1DC30BD202A04DB203A15
:1005E00000FA02F1002070479140C2F1200320FA86
:1005F00003F3194390407047202A04DB203A21FA84
:1006000002F00021704721FA02F3D040C2F120022B
:100610009140084319467047202A06DBCB17203A41
:1006200041FA02F043EAE07306E041FA02F3D040F7
:10063000C2F12002914008431946704710B5141EBC
:1006400073F1000408DA401C41F1000192185B418B
:100650001A4301D120F0010010BD2DE9F04D924662
:100660009B4611B1B1FA81F202E0B0FA80F2203279
:100670009046FFF7B2FF04460F4640EA0A0041EAFF
:100680000B0153465A46084313D0114653EA010062
:1006900019D0C8F140025046FFF7AEFF05460E469E
:1006A000504659464246FFF798FF084305D00120BF
:1006B00004E020463946BDE8F08D0020054346EAB7
:1006C000E0762C4337430A986305E40AA0EB080060
:1006D0000022FD0A44EA47540A3002D500200146B0
:1006E000E9E7010510196941DDE90845001969418B
:1006F000BDE8F04DA2E70EB5C10F80EAE0700844F6
:10070000CA07002140F233438DE80E000A460B462B
:10071000FFF7A3FF03B000BDC1F30A52C1F31301F9
:1007200040F2FF3341F480119A4202DA0020014680
:10073000704740F233439A42A2F2334202DC524203
:10074000FFF75ABFFFF749BF30B5041E71F100042F
:1007500004DB4FF00044404264EB0101141E73F1CE
:10076000000405DB1C464FF00043524263EB0403D8
:10077000994208BF904230BD064C074D06E0E06844
:1007800040F0010394E8070098471034AC42F6D3D8
:10079000FFF7FEFCD0400008F040000830B5041E12
:1007A00071F1000404DB4FF00044404264EB0101AE
:1007B000141E73F1000405DB1C464FF00043524247
:1007C00063EB04038B4208BF824230BDFEE77047F3
:1007D000704710B500EB810393ED000A26E0521E2E
:1007E000914208DA00EB8203D3ED000AF4EEC00A6E
:1007F000F1EE10FAF3DA00EB820300EB8104D3EDA3
:10080000000AC4ED000A00E0491C914208DA00EB3E
:100810008104D4ED000AF4EEC00AF1EE10FAF3D927
:1008200000EB8104D4ED000AC3ED000A9142D7DB4E
:1008300000EB810080ED000A00EE101AB8EEC00A4D
:1008400010BD000070B5044600F0F8F80546601CC5
:1008500002D004480078044400F0F0F8401BA042A5
:10086000FAD370BD080000202DE9F84FDFF87CB105
:1008700000224FF001084FF0030A4FF00F090BF16F
:10088000040E00BF0B6808FA02F42340A3426ED1A5
:100890004D68022D01D0122D0ED1D50800EB850C2C
:1008A000DCF820505607F70E09FA07F6B5430E6933
:1008B000BE402E43CCF82060066855000F790AFA36
:1008C00005FC07F0030726EA0C06AF403743076034
:1008D0004E68012E05D0022E03D0112E01D0122E0B
:1008E0000ED18668CF6826EA0C06AF403743876092
:1008F0004668A6430C79C4F3001494403443446022
:10090000C6688C6826EA0C06AC403443C4604C6868
:10091000E40065D5364C256845F48045256024689B
:1009200022F0030504F480440094324C2E19D6F8CA
:10093000084895072F0F09FA07F5AC432E4DA8423A
:1009400001D1002524E02D4DA84201D101251FE051
:100950002B4DA84201D102251AE02A4DA84201D10F
:10096000032515E0284DA84202D1042510E037E008
:10097000264DA84201D105250AE0254DA84201D106
:10098000062505E0234DA84201D1072500E00825F2
:10099000BD402543C6F80858DBF800405D464E6868
:1009A0009C43F60300D51C432C60DEF800407546DE
:1009B0004E689C43B60300D51C432C600B4D083594
:1009C0002C684E689C43F60200D51C432C60074DF2
:1009D0000C352C684E689C43B60200D51C432C6035
:1009E000521C102AFFF44EAFBDE8F88F003C0140C6
:1009F0004438024000300140000002400004024040
:100A000000080240000C02400010024000140240A6
:100A100000180240001C02400069084000D001207C
:100A20007047426931EA020200D1090481617047CE
:100A30000AB1816170470904FBE700000148806842
:100A400070470000080000200248816802781144C5
:100A500081607047080000200B4810B5016841F420
:100A600000710160016841F480610160016841F436
:100A700080710160032000F06FF8002000F006F89C
:100A800000F024F8002010BD003C024070B50D4D70
:100A900004464FF47A712878B1FBF0F00A490968EE
:100AA000B1FBF0F000F0E0FA48B9102C07D20022B8
:100AB0002146501E00F030F800206C6070BD01200F
:100AC00070BD000008000020140000200A4808B58E
:100AD000016841F480410160006800F480400090AA
:100AE0000548001F016841F080510160006800F076
:100AF0008050009008BD000044380240002809DB07
:100B000000F01F02012191404009800000F1E02027
:100B1000C0F8001170470000F0B40E4B1B680C4683
:100B2000C3F30223C3F10705042D00D90425191DC1
:100B3000072901D2002300E0DB1E012606FA05F199
:100B4000491E214099409E40761E16403143F0BC1C
:100B500002F06BB80CED00E0064900F007020868EF
:100B60004FF6FF03184040EA0220034A1043086092
:100B7000704700000CED00E00000FA052DE9F04799
:100B80000E46050065D0DFF81481D8F80000F7B2F2
:100B900000F00F00B04207D288F80070D8F80000CB
:100BA00000F00F00B04254D128683D4C810712D5A7
:100BB000400703D5206840F4E05020602878000703
:100BC00003D5206840F4604020602068A96820F0C8
:100BD000F000084320602878C0072DD030496868AD
:100BE0000839012812D0022813D0032811D009682F
:100BF000890700292DDA216821F0030101432160D2
:100C0000FFF71CFF814641F2883A0EE0096889032C
:100C1000EFE709688901ECE7FFF710FFA0EB090196
:100C2000514502D90320BDE8F0872068696800F0CB
:100C30000C00B0EB810FEFD1D8F80010404601F066
:100C40000F01B14207D90770006800F00F00B042F1
:100C500001D00120E7E72878400705D52068E9683A
:100C600020F4E050084320602878000706D520686B
:100C7000296920F4604040EAC100206000F036F8A5
:100C80002168084AC1F30311515CC8400649086055
:100C90000020FFF7FBFE0020C5E70000003C0240FB
:100CA000083802407240000814000020044805493A
:100CB00000680968044AC1F38221515CC84070474A
:100CC000140000200838024082400008044805490A
:100CD00000680968044AC1F34231515CC84070475A
:100CE000140000200838024082400008154810B562
:100CF000006810F00C02144813D04110042A0FD0E1
:100D0000082A0ED10F4C241F2268236802F03F02EC
:100D10005B0207D52068C0F38810A0FB010106E044
:100D2000084610BD2168C1F38811A1FB0001002312
:100D3000FFF746FA2168C1F30141491C4900B0FBA5
:100D4000F1F010BD083802400024F4002DE9F84FFE
:100D5000050076D02878DFF8F8B2BE4CC00749D03D
:100D6000DBF800105846C1F38101012908D0006862
:100D7000C0F3810002280AD1201D0068400206D578
:100D80002068800336D568680028E2D032E06868C1
:100D9000B0F5803F10D0B0F5A02F206810D020F41F
:100DA00080302060206820F4802020606868A0B136
:100DB000FFF744FE06460CE0206840F48030F4E77C
:100DC00040F480202060F7E7FFF738FE801B64289E
:100DD00073D820688003F7D50CE0FFF72FFE064696
:100DE00005E000BFFFF72AFE801B6428F0D82068CA
:100DF0008003F7D42878DFF8608280074FF000097D
:100E00003ED5DBF80010584611F00C0F09D00068F1
:100E1000C0F3810002280BD18D48001F00684002FA
:100E200006D42068800715D5E868012809D111E0AB
:100E3000E868B8B10120C8F80000FFF7FFFD0646DA
:100E400005E002E1FFF7FAFD801B0228C0D8206808
:100E50008007F7D52068296920F0F80040EAC10032
:100E600020600DE0C8F80090FFF7E8FD064604E0BA
:100E7000FFF7E4FD801B02281FD820688007F7D405
:100E80002878000722D5724E744869696C3671B1B2
:100E900001210160FFF7D2FD074604E0FFF7CEFD18
:100EA000C01B022809D830688007F7D50EE0C0F8CB
:100EB0000090FFF7C3FD074605E083E0FFF7BEFDA6
:100EC000C01B02287ED830688007F7D428784007F6
:100ED00068D5DFF87CA100270AF1380ADAF80000AB
:100EE000C0000BD4DAF8001041F08051CAF80010AD
:100EF000DAF80000012700F080500090584E30686A
:100F0000C00510D4306840F480703060FFF796FD63
:100F1000009005E0FFF792FD0099401A022851D891
:100F20003068C005F6D54A4EA868683601280FD04B
:100F30000528306810D020F001003060306820F0C3
:100F400004003060A868B8B1FFF778FD00900FE0AA
:100F5000306840F00100F4E740F004003060F7E74B
:100F6000FFF76CFD0099411A41F28830814264D844
:100F700030688007F4D50EE0FFF760FD009007E0D1
:100F8000FFF75CFD0099411A41F28830814254D844
:100F900030688007F4D42FB1DAF8001021F08051C6
:100FA000CAF80010A869C0B3DBF80010C1F38101D2
:100FB00002294AD00228484607D0C8F86000FFF747
:100FC0003DFD00E039E005463AE04746C8F86000DC
:100FD000FFF734FD064604E0FFF730FD801B0228D2
:100FE0002BD820688001F7D4D5E907010843A96A06
:100FF0001C4A490802EB01416A6A41EA821108432E
:1010000095F82C1040EA01611148001F0160012091
:101010003866FFF713FD054605E014E0FFF70EFD07
:10102000401B022809D820688001F7D50BE000BFDB
:10103000FFF704FD401B022802D90320BDE8F88F0A
:1010400020688001F4D40020F8E70120F6E70000D2
:10105000083802400038024000004742800E4742F4
:10106000007000400000FFFF10B5401EB0F1807F0F
:1010700001D3012010BD4FF0E02460610F21601703
:1010800001F0D3FD0020A06107202061002010BDE9
:101090007047704770B590F83C20012A19D00124A0
:1010A00000F83C4F0222427050F83C3C5A689D6860
:1010B00022F070060A684968324325F0800529430A
:1010C0005A6050F83C2C9160447000210170084631
:1010D00070BD022070BD10B5040003D094F83D002F
:1010E00010B107E0012010BD002084F83C0020462C
:1010F00000F00CF8022084F83D00211D206801F06A
:101100004DFB012084F83D00002010BD08B50068AB
:101110000B49884212D10B48016841F0020101607D
:101120000068002200F00200009011461D20FFF729
:10113000F3FCBDE808401D20FFF7E0BC08BD00003F
:1011400000040040403802400168CA6842F00102D1
:10115000CA600068816801F00701062903D00168B0
:1011600041F0010101600020704770B5044690F81D
:101170003C00012817D0012584F83C50022084F857
:101180003D002068826822F0770222F47F4282606C
:101190000868502830D00DDC20284DD005DC98B3ED
:1011A00010283BD148E0022070BD302844D04028B0
:1011B00034D139E0602828D0702806D0B0F5805F9F
:1011C0002CD0B0F5005F29D10AE0CB68D1E901212C
:1011D000206801F047FB2068816841F0770109E051
:1011E000CB68D1E90121206801F03CFB20688168CF
:1011F00041F48041816011E0CA684968206801F0CB
:1012000043FB5021206807E016E0CA68496820685F
:1012100001F04BFB6021206801F02EFB84F83D506B
:10122000002084F83C0070BDCA684968206801F05D
:101230002BFB40212068EFE7226801461046EBE7D0
:10124000704770B50446006801694FF00005C94356
:10125000890715D4C168C943890711D4E91E016102
:1012600001202077206880698007204602D0FFF7A0
:10127000E7FF04E000F098F8204600F096F82577A4
:1012800020680169C943490717D4C168C9434907A0
:1012900013D46FF004010161022020772068806977
:1012A00010F4407F204602D0FFF7CAFF04E000F0B0
:1012B0007BF8204600F079F8257720680169C9435A
:1012C000090716D4C168C943090712D46FF0080191
:1012D0000161042020772068C0698007204602D081
:1012E000FFF7AEFF04E000F05FF8204600F05DF885
:1012F000257720680169C943C90617D4C168C94365
:10130000C90613D46FF0100101610820207720680E
:10131000C06910F4407F204602D0FFF791FF04E03F
:1013200000F042F8204600F040F825772068016977
:10133000C943C90708D1C168C943C90704D1891E77
:101340000161204600F032F820680169C9430906AE
:1013500009D4C168C943090605D46FF08001016151
:101360002046FFF795FE20680169C943490609D464
:10137000C168C943490605D46FF0400101612046A8
:1013800000F032F820680169C94389060BD4C168AE
:10139000C943890607D46FF0200101612046BDE8EA
:1013A0007040FFF776BE70BD7047704710B500689B
:1013B0000B49884212D10B4800234188491C89B24D
:1013C00041808288521C94B201228480322C01D345
:1013D00083800270002901D04380427010BD00005C
:1013E0000004004000000020704770B5040004D0E5
:1013F00094F83900002510B106E0012070BD84F892
:101400003850204600F022F8242084F83900206863
:10141000C16821F40051C160204601F059FA2068EA
:10142000016921F4904101612068416921F02A019C
:1014300041612068C16841F40051C160E56320202A
:1014400084F8390084F83A00002070BD10B586B0E9
:10145000044614216846FEF7EBFE144920688842D2
:1014600021D11348016841F010010160006800F0CB
:10147000100005900E481438016841F00101016028
:101480000068694600F0010005904FF4C0600090CC
:101490000220019001200290032003900720049075
:1014A0000448FFF7E1F906B010BD0000001001404C
:1014B00044380240000002402DE9F843044690F809
:1014C00039001F4616460D46202850D1A5B19EB1C1
:1014D00094F8380001284AD0012084F838004FF0F1
:1014E0000008C4F83C80212084F83900FFF7A6FAF0
:1014F000A6848146E68426E00120BDE8F883E08CDE
:10150000401EE084A0684B46B0F5805F4FF00002BB
:101510004FF080012046009703D001F02FFBE8B97F
:101520000DE001F02BFBC8B928882168C0F3080042
:101530004860206908B16D1C05E0AD1C03E021681E
:1015400015F8010B4860E08C0028D8D14B460022EA
:1015500040212046009701F011FB08B10320CCE7A1
:10156000202084F8390084F838800020C5E7022064
:10157000C3E7FEE710B5334C00222DED068B40216A
:101580002046FFF755FA9FED30ABB0EE4A0AF0EE79
:101590006A0A01F0FDFE9FED2E9BB0EE408AF0EE50
:1015A000608AB0EE490AF0EE690A01F0F1FEB0EE91
:1015B000401AF0EE601A53EC182B51EC110BFEF7A9
:1015C0005BFFFEF7C8FF410003208840216881438C
:1015D0002160B0EE4A0AF0EE6A0A01F0D9FEB0EEE0
:1015E000408AF0EE608AB0EE490AF0EE690A01F036
:1015F000CFFEB0EE401AF0EE601A53EC182B51EC0F
:10160000110BFEF739FFFEF7A6FF410001208840CD
:10161000216808432060002280212046FFF708FA55
:1016200000F01AF8012240212046FFF701FA00F0ED
:1016300013F8BDEC068B204600224021BDE8104087
:10164000FFF7F6B90004024000000000000000406F
:1016500000000000000060400020401CC0B21E28B6
:10166000FBD3704710B5334C00222DED068B402183
:101670002046FFF7DDF99FED30ABB0EE4A0AF0EE01
:101680006A0A01F085FE9FED2E9BB0EE408AF0EED7
:10169000608AB0EE490AF0EE690A01F079FEB0EE18
:1016A000401AF0EE601A53EC182B51EC110BFEF7B8
:1016B000E3FEFEF750FF410003208840216881438C
:1016C0002160B0EE4A0AF0EE6A0A01F061FEB0EE67
:1016D000408AF0EE608AB0EE490AF0EE690A01F045
:1016E00057FEB0EE401AF0EE601A53EC182B51EC96
:1016F000110BFEF7C1FEFEF72EFF410001208840CE
:10170000216808432060012280212046FFF790F9DC
:10171000FFF7A2FF012240212046FFF789F9FFF7DA
:101720009BFFBDEC068B204600224021BDE8104007
:10173000FFF77EB9000402400000000000000040F6
:1017400000000000000060402DE9F04107462DED4B
:10175000068B00259FED2D9BB0EE490AF0EE690A3D
:1017600001F016FE9FED2BABB0EE401AF0EE601AC2
:10177000B0EE418AF0EE618AB0EE4A0AF0EE6A0AF3
:1017800001F006FE53EC182B51EC100BFEF774FE23
:10179000FEF7E1FE4100214C03208840216881438F
:1017A0002160B0EE4A0AF0EE6A0A01F0F1FDB0EEF7
:1017B000490AF0EE690A01F0EBFD2068206000267E
:1017C000002240212046FFF733F9FFF745FF0122B1
:1017D00040212046FFF72CF96806050E802120469F
:1017E000FFF71AF908B16D1CEDB2FFF735FF761C53
:1017F000F6B2082EE4D317B1FFF7BCFE01E0FFF705
:1018000031FFBDEC068B2846BDE8F08100000000EA
:1018100000000040000000000000604000040240A2
:1018200070B515460E46044600F0D2F8204600F08A
:101830004FF800F0B1F918B100F03CF9012070BD8B
:10184000304600F045F800F0A7F900F0C1F8641C3C
:10185000E0B200F03DF800F09FF90020FFF774FFC0
:10186000287000F027F9002070BD2DE9F0411F46D7
:10187000154688460646002400F0AAF8304600F0D7
:1018800027F800F089F920B100F014F90120BDE833
:10189000F081404600F01CF800F07EF900F098F866
:1018A000761CF0B200F014F800F076F96E1E09E034
:1018B000B44201D0012000E00020FFF745FF385579
:1018C000641CE4B2AC42F3D300F0F4F80020DEE78D
:1018D00070B505462DED068B9FED38ABB0EE4A0A8C
:1018E000F0EE6A0A01F054FD9FED369BB0EE401A0F
:1018F000F0EE601AB0EE418AF0EE618AB0EE490A6D
:10190000F0EE690A01F044FD53EC182B51EC100B7A
:10191000FEF7B2FDFEF71FFE41002C4E032088406B
:101920003168344681433160B0EE4A0AF0EE6A0A0B
:1019300001F02EFDB0EE408AF0EE608AB0EE490A6A
:10194000F0EE690A01F024FDB0EE401AF0EE601AE4
:1019500053EC182B51EC110BFEF78EFDFEF7FBFD3F
:101960004100012088402168084320600022402176
:101970002046FFF75DF80024280601D5012200E08B
:10198000002280213046FFF753F86806050EFFF766
:1019900063FE012240213046FFF74AF8FFF75CFE64
:1019A000002240213046FFF743F8FFF755FE641C44
:1019B000E4B2082CE0D3BDEC068B70BD0000000043
:1019C00000000040000000000000604000040240F1
:1019D00010B52DED068B9FED32ABB0EE4A0AF0EE5E
:1019E0006A0A01F0D5FC9FED309BB0EE408AF0EE24
:1019F000608AB0EE490AF0EE690A01F0C9FCB0EE67
:101A0000401AF0EE601A53EC182B51EC110BFEF754
:101A100033FDFEF7A0FD4100254C032088402168DE
:101A200081432160B0EE4A0AF0EE6A0A01F0B0FC90
:101A3000B0EE408AF0EE608AB0EE490AF0EE690A34
:101A400001F0A6FCB0EE401AF0EE601A53EC182B31
:101A500051EC110BFEF710FDFEF77DFD410001205A
:101A60008840216808432060012280212046FEF73B
:101A7000DFFF012240212046FEF7DAFFFFF7ECFDF1
:101A8000002280212046FEF7D3FFFFF7E5FDBDECE5
:101A9000068B204600224021BDE81040FEF7C8BF5B
:101AA0000000000000000040000000000000604056
:101AB0000004024010B52DED068B9FED32ABB0EE69
:101AC0004A0AF0EE6A0A01F063FC9FED309BB0EE2B
:101AD000408AF0EE608AB0EE490AF0EE690A01F041
:101AE00057FCB0EE401AF0EE601A53EC182B51EC94
:101AF000110BFEF7C1FCFEF72EFD4100254C032023
:101B00008840216881432160B0EE4A0AF0EE6A0AFB
:101B100001F03EFCB0EE408AF0EE608AB0EE490A79
:101B2000F0EE690A01F034FCB0EE401AF0EE601AF3
:101B300053EC182B51EC110BFEF79EFCFEF70BFD3E
:101B40004100012088402168084320600022402194
:101B50002046FEF76DFF002280212046FEF768FF39
:101B6000FFF77AFD012240212046FEF761FF0122A6
:101B700080212046FEF75CFFBDEC068BBDE81040DF
:101B8000FFF76ABD000000000000004000000000F8
:101B9000000060400004024070B500252DED068B6A
:101BA0009FED2D9BB0EE490AF0EE690A01F0F0FBC3
:101BB0009FED2BABB0EE408AF0EE608AB0EE4A0AA1
:101BC000F0EE6A0A01F0E4FBB0EE401AF0EE601AA3
:101BD00053EC182B51EC110BFEF74EFCFEF7BBFC3F
:101BE0004100214C03208840216881432160B0EEF0
:101BF0004A0AF0EE6A0A01F0CBFBB0EE490AF0EEB9
:101C0000690A01F0C5FB206820600122802120467E
:101C1000FEF70EFFFFF720FD012240212046FEF7D0
:101C200007FFFFF719FD09E06D1CEDB2FA2D05D98C
:101C3000FFF740FF0120BDEC068B70BD80212046E0
:101C4000FEF7EAFE0028EFD1002240212046FEF7F1
:101C5000EFFE0020EFE70000000000000000004061
:101C600000000000000060400004024070B515460E
:101C70000E460446FFF7ACFE2046FFF729FEFFF7AD
:101C80008BFF50B93046FFF723FEFFF785FF28464C
:101C9000FFF71EFEFFF780FF18B1FFF70BFF0120D3
:101CA00070BDFFF707FF002070BD0000204B30B56E
:101CB00003F190029FED1F0AA2F1C0001E4D80EDBE
:101CC000000A002005EB800403EB800194ED000A7C
:101CD000401C81ED000AD4ED030AC0B2C1ED030A35
:101CE00081ED0C0AC1ED0F0A81ED180AC1ED1B0A46
:101CF0000328E7D3104C002014F1180404EB8003F0
:101D000002EB8001D3ED000A401CC1ED000A93ED07
:101D1000050AC0B281ED050AC1ED140A81ED190A68
:101D2000C1ED280A81ED2D0A0528E7D330BD00005A
:101D30008403002073D9A03E3800002070B54FF412
:101D400000740A4D06E00AA000F04CFF2146284628
:101D5000FEF767FE00F003F90028F4D0214628467C
:101D6000BDE870400122FEF763BE0000001402408F
:101D70000A0D204D505536303530206E6F20636F80
:101D80006E6E6563742E2E2E200A0D0010B5FFF7BF
:101D9000D5FF80216B2000F0D0F86420FEF752FDC3
:101DA00001216B2000F0C9F80021382000F0C5F8AF
:101DB00018211B2000F0C1F808211C2000F0BDF8FC
:101DC00004211A2000F0B9F80021192000F0B5F81C
:101DD0000221372000F0B1F80A20FEF733FDBDE8FC
:101DE000104000F0C5B8000010B5424A0E213B205B
:101DF00000F098F83F4800F110040188228E49BA9B
:101E0000891A21814188628E49BA891A6181818843
:101E1000A28E49BA891AA181C18849BAE180018993
:101E2000E28E49BA891AA1834189228F49BA891A57
:101E3000E1838089618F40BA401A208404F1100147
:101E40000A22A1F1080000F011FB04F1240108228C
:101E5000A1F1080000F09CFBD4ED040A9FED260AD6
:101E6000274820EE801ADFED250A21EE201A80EDAA
:101E7000001A94ED051A21EE001A21EE201A80EDC9
:101E8000011A94ED061A21EE000A9FED1E1A20EEAB
:101E9000200A80ED020AB4F9061000EE101AF8EEDE
:101EA000C00A80EE810ADFED180A30EE200A80EDCC
:101EB000030AB4F91C1000EE101AF8EEC00A9FEDE8
:101EC000130A60EE800AC0ED040AB4F91E1000EE99
:101ED000901AF8EEE00A60EE800AC0ED050AB4F947
:101EE000201000EE901AF8EEE00A20EE800A80ED55
:101EF000060A10BD0001002040DAFF380AE81C4144
:101F00004C0100200000AA43B81E124245798B3ACA
:101F10000A4610B50146D020FFF782FC002800D009
:101F2000012010BD13460A4610B50146D020FFF728
:101F30009CFC002800D0012010BD0A4610B50146C7
:101F4000D020FFF793FE002800D0012010BD08B577
:101F500069467520FFF7DCFF9DF8000008BD10B54D
:101F6000FFF7F5FF682801D0002010BD012010BD4B
:101F70002DE9F0411B4F002607F110044FF4967530
:101F8000184A0E213B20FFF7CDFF3989E08E49BA70
:101F90000844E0867989208F49BA08442087B989A6
:101FA000608F49BA084460870220FEF74BFC761C1C
:101FB000AE42E5DBB420208660866FF4AC70A0866C
:101FC000B4F9360090FBF5F0E086B4F9380090FBE8
:101FD000F5F02087B4F93A0090FBF5F06087BDE892
:101FE000F081000000010020F0B587B014216846A0
:101FF000FEF71EF922480025016841F0200101602A
:10200000016801F020010591016841F08001016043
:10201000016801F080010591016841F00101016052
:10202000016801F001010591016841F002010160C0
:102030000068144E00F002004FF4C06405900122C5
:1020400021463046FEF7F4FC0F4F0022C0213846EF
:10205000FEF7EEFC00940124694630460194CDE978
:102060000245FEF701FCC020CDE900040220CDE9C5
:10207000024069463846FEF7F7FB07B0F0BD0000A6
:1020800030380240001402400004024010B586B00F
:102090000024174800940194029403940494134973
:1020A000059401605321C0E9011440F2E731C0E911
:1020B00003148461FFF70FF808B1FEF789FB4FF4B2
:1020C0008050009069460A48FFF74FF808B1FEF7C4
:1020D0007FFB049404A906480594FEF7DBFF002863
:1020E00001D0FEF775FB06B010BD000000040040F3
:1020F000800000200C4810B50A4901604FF4E1311E
:102100004160002181600C22C160C0E9041281613C
:10211000C161FFF76AF9002803D0BDE81040FEF75F
:1021200057BB10BD00100140C000002070B500F189
:1021300010012DED048B90ED004A90ED013AD0EDA9
:10214000023AB5EEC04AD1EC031AB44CF1EE10FAE3
:1021500009D1B5EEC03AF1EE10FA04D1F5EEC03A6D
:10216000F1EE10FA6FD024EE040A03EE030A03EE38
:10217000A30A01F0E7FE24EE004A63EE004A63EE94
:10218000800A94ED010A94ED031A94ED023A94ED5D
:10219000015A20EE011A94ED000A00EE431A94ED64
:1021A000000A94ED013A60EE033A94ED020A94EDD0
:1021B000033A40EE033A94ED013AB6EE000A03EE1C
:1021C000450A94ED023A94ED025A03EE450A24EED4
:1021D000803A00EEE33A60EE810A44EE400A24EED3
:1021E000230A04EEC10A9FED8E1A94ED044A63EEB1
:1021F000014ADFED8C3A04EEA34A60EE814A84ED99
:10220000044A94ED054A04EEA34A84ED054A20EE03
:10221000014A94ED061A04EE231A84ED061A94ED91
:10222000041A71EE811A94ED051A32EE012A94ED2A
:10223000061A72EE812A9FED7C1A43EE011A00EE17
:10224000812A40EE012A9FED791A21EE810AD4ED10
:10225000011A62EE010A94ED022AF1EE611A22EEF1
:10226000811A61EE801A42EE601A94ED032A42EE62
:10227000411A94ED002A71EE821AC4ED001AD4EDD1
:10228000001A94ED022A61EE801A42EE011A94EDD2
:10229000032A42EE601A94ED012A71EE821AC4ED0F
:1022A000011AD4ED001A94ED012A61EEA01A42EE53
:1022B000411A94ED032A42EE001A94ED022A71EEBF
:1022C000821AC4ED021AD4ED001A21EE811AD4ED5F
:1022D000011A01EEA01AD4ED020A00EEC01A94ED24
:1022E000030A31EE000A84ED030A94ED000AD4EDEE
:1022F000000A94ED011A20EE200AD4ED010A00EE46
:10230000810AD4ED020A94ED021A00EE810AD4ED9E
:10231000030A94ED031A00EE810A01F013FED4EDD6
:10232000000AB7EE008AF0EE008A60EE800AC4ED83
:10233000000AD4ED010A60EE800AC4ED010AD4ED72
:10234000020A60EE800AC4ED020AD4ED030A20EE10
:10235000800A84ED030A94ED010AD4ED010A94ED9C
:10236000021AD4ED031A20EE200AD4ED020A00EE80
:10237000810AF0EE480A94ED011A40EE680A94EDE5
:10238000000A20EE010A94ED021A01EE210A20EE65
:10239000280A00F0F1FC9FED269A264D20EE090A4E
:1023A00085ED070A94ED000AD4ED020A94ED031AB4
:1023B00020EE200AD4ED010A00EEC10A20EE280A20
:1023C00000F044FC20EE090A85ED080A94ED020AAB
:1023D000D4ED020A94ED031AD4ED031A20EE200A7C
:1023E000D4ED030A00EE810AF0EE480A94ED021AD9
:1023F00040EE680A94ED010A20EE010A94ED001AFD
:1024000001EE210A20EE280A00F0B6FC20EE090AAF
:1024100085ED090ABDEC048B70BD0000180000209A
:10242000CDCCCC3D6F12833ACDCCCC3F6F12033A6A
:10243000333365424C010020FEE770477047F0B52A
:1024400014460D460646A1420EDAFEF7C2F9BDEE6D
:10245000C00A2946304610EE107A7A1EFFF7EFFFC9
:102460002246791C3046EBE7F0BD70472DE9F04776
:102470000E462DED048B1446B0F90010434D00EECE
:10248000101A414F2978B8EEC00A07EB810207F114
:10249000500882ED000AB0F9022007F1A00900EE11
:1024A000102A08EB8102DFED378AB8EEC00AB0EEE1
:1024B000689A82ED000AB0F90400B0EE688A00EE76
:1024C000100A09EB8100491CB8EEC00A80ED000A31
:1024D000C8B22870A04202D2687800284ED14FF0CE
:1024E000000A85F801A0621E51462748FFF7A7FFA2
:1024F0002548621E00215030FFF7A1FF2248621ECE
:102500000021A030FFF79BFF012042464B46611E91
:1025100014E000BF07EB800C9CED000A02EB800C7E
:1025200030EE099A9CED000A03EB800C401C70EE23
:10253000288A9CED000AC0B230EE088A8842E9DBA6
:102540002878A04201D385F800A0A41E00EE104A0E
:10255000B8EEC00AC9EE000A00EE104AB8EEC00A92
:10256000C6ED000AC8EE800A00EE104AB8EEC00AB6
:10257000C6ED010AC8EE000AC6ED020ABDEC048BE6
:10258000BDE8F08700000000740100203400002046
:102590002DE9F0470E462DED048B1446B0F90010DE
:1025A000434D00EE101A414FA978B8EEC00A07EB70
:1025B000810207F1500882ED000AB0F9022007F10C
:1025C000A00900EE102A08EB8102DFED378AB8EE91
:1025D000C00AB0EE689A82ED000AB0F90400B0EECD
:1025E000688A00EE100A09EB8100491CB8EEC00AA7
:1025F00080ED000AC8B2A870A04202D2E878002894
:102600004ED14FF0000A85F803A0621E51462748BC
:10261000FFF715FF2548621E00215030FFF70FFF1E
:102620002248621E0021A030FFF709FF0120424628
:102630004B46611E14E000BF07EB800C9CED000AC6
:1026400002EB800C30EE099A9CED000A03EB800C43
:10265000401C70EE288A9CED000AC0B230EE088A59
:102660008842E9DBA878A04201D385F802A0A41E25
:1026700000EE104AB8EEC00AC9EE000A00EE104A99
:10268000B8EEC00AC6ED000AC8EE800A00EE104A95
:10269000B8EEC00AC6ED010AC8EE000AC6ED020A8D
:1026A000BDEC048BBDE8F087000000006402002050
:1026B00034000020FEF7C8B930B593B03021684629
:1026C000FDF7B6FD14210CA8FDF7B2FD1948002551
:1026D000016841F080510160006800F08050119065
:1026E0001548016841F4804101600068022400F44B
:1026F0008040119001200090000401908001CDE9FC
:10270000064008AA0420A82182E813000B9068461E
:10271000FEF71CFB0CA90F2081E831004FF4A050FC
:102720000F90E002109005210CA8FEF727FA13B0D5
:1027300030BD000040380240007000401048016881
:1027400041F4700101600F48016841F0010101602E
:102750000C4A00210832116002680B4B1A400260DB
:10276000031D0A4A1A60026822F4802202600548AA
:102770000C3001600249580680390860704700003B
:1027800088ED00E000380240FFFFF6FE1030002424
:102790000148FEF756BD000080000020F0B5026839
:1027A000254C264D264E274F274B4FF0804CA042FC
:1027B00009D0604507D0A84205D0B04203D0B84246
:1027C00001D0984204D122F0700E4A6842EA0E020B
:1027D000A0421BD0604519D0A84217D0B04215D0F6
:1027E000B84213D0984211D0184DA8420ED0184DBF
:1027F000A8420BD0174DA84208D0174DA84205D0CB
:10280000164DA84202D0164DA84203D122F44075BD
:10281000CA682A434D6922F080022A4302608A680E
:10282000C2620A688262A04201D0984201D109695D
:10283000016301214161F0BD00000140000400403E
:1028400000080040000C004000040140004001402E
:10285000004401400048014000180040001C0040B6
:102860000020004010B5846842EA032224F47F442B
:102870000A432243826010BD826822F070020A433C
:1028800042F007018160704710B5036A046A24F0C2
:1028900001040462846924F0F00444EA021423F081
:1028A0000A020A438461026210BD10B5036A23F074
:1028B000100303628369046A23F4704343EA02321B
:1028C00024F0A00343EA01118261016210BD0000FF
:1028D0002DE9F041044600680169E26821F44051A5
:1028E000114301612169A068E269084361691143EC
:1028F00022680843D16849F20C6399430143D160CF
:1029000020684169A26921F4407111434161E26983
:102910006425B2F5004F9748974922684FF0320876
:102920003FD08A4201D082427CD1FEF7CFF900EB42
:10293000C00101EB001061688900B0FBF1F6FEF701
:10294000C5F900EBC00101EB001061688900B0FB24
:10295000F1F0B0FBF5F06FF01801484306EB800191
:1029600008EB0110B0FBF5F000F0F006FEF7AEF951
:1029700000EBC00101EB001061688900B0FBF1F0D1
:10298000B0FBF5F006EB0016FEF7A0F900EBC00176
:1029900001EB001061688900B0FBF1F7FEF796F9D2
:1029A000D2E08A4201D082423DD1FEF78FF900EB9E
:1029B000C00101EB001061684900B0FBF1F0B0FB11
:1029C000F5F00601FEF782F900EBC00101EB001003
:1029D00061684900B0FBF1F7FEF778F900EBC00140
:1029E00001EB001061684900B0FBF1F0B0FBF5F0BD
:1029F0006FF01801484307EB800108EBC100B0FB02
:102A0000F5F000F0F80006EB4006FEF75FF900EB8A
:102A1000C00101EB001061684900B0FBF1F7FEF75F
:102A200055F93CE055E0FEF741F900EBC00101EB40
:102A3000001061684900B0FBF1F0B0FBF5F0060151
:102A4000FEF734F900EBC00101EB001061684900AA
:102A5000B0FBF1F7FEF72AF900EBC00101EB001023
:102A600061684900B0FBF1F0B0FBF5F06FF01801C0
:102A7000484307EB800108EBC100B0FBF5F000F024
:102A8000F80006EB4006FEF711F900EBC00101EB80
:102A9000001061684900B0FBF1F7FEF707F900EBA1
:102AA000C00101EB001061684900B0FBF1F0B0FB20
:102AB000F5F06FF01801484307EB800108EBC10007
:102AC000B0FBF5F000F00700216830448860BDE8F5
:102AD000F081FEF7EBF800EBC00101EB001061683C
:102AE0008900B0FBF1F6FEF7E1F800EBC00101EB65
:102AF000001061688900B0FBF1F0B0FBF5F06FF0F9
:102B00001801484306EB800108EB0110B0FBF5F01B
:102B100000F0F006FEF7CAF800EBC00101EB001070
:102B200061688900B0FBF1F0B0FBF5F006EB001630
:102B3000FEF7BCF800EBC00101EB001061688900F2
:102B4000B0FBF1F7FEF7B2F800EBC00101EB0010AB
:102B500061688900B0FBF1F0B0FBF5F06FF018018F
:102B6000484307EB800108EB0110B0FBF5F000F0E3
:102B70000F00A9E700140140001001402DE9F041C9
:102B8000984617460E460446069D1DE0681C1BD05D
:102B90002DB1FDF753FFA0EB0800A84214D920681F
:102BA000C16821F4D071C1602068416921F0010140
:102BB0004161202084F8390084F83A00002084F82C
:102BC00038000320BDE8F0812068006836EA000084
:102BD00004D00020B842D9D00020F3E70120F9E763
:102BE000FEE700000FB4054B10B503A9044A029894
:102BF00000F004FE10BC5DF814FB00002D3F00083F
:102C0000780000204100080218BF04200A0E18BFF7
:102C100040F001004FF07F4232EA010108BF40F06E
:102C20000200012808BF052070470907090E002887
:102C300004DB00F1E02080F80014704700F00F0082
:102C400000F1E02080F8141D7047000010B54FF02F
:102C50000E402DED028BB0EE408A18EE104A00EBCC
:102C60004400B0F1506F4AD84FF0FC40B0EB440F35
:102C700022D2B0EEC80AF7EE000A30EEC00AF6EE35
:102C8000000A60EE208A18EE900A01F0D3F901EEF6
:102C9000100A14F0004F1DBFDFED2D0A9FED2D0A25
:102CA000B1EE411ADFED2C0A08BF9FED2C0AF8EEB9
:102CB000001A21EE218A05E0DFED290A68EE088A74
:102CC000B0EE600A9FED271ADFED271A30EE080AF2
:102CD00048EE811A9FED251A08EEA11ADFED241A9D
:102CE00048EE811A9FED231A08EEA11A68EE281A01
:102CF000BDEC028B01EE810A30EE200A10BD4FF0D0
:102D0000E440B0EB440F0CD918EE100AFFF77AFF3D
:102D1000042808BF00F092FCB0EE480ABDEC028B1C
:102D200010BD4FF07F40B0EB440F07D2B0EE480A21
:102D3000BDEC028BBDE8104000F072BC012000F039
:102D400095FCBDEC028BBDE8104000F06FBC0000AC
:102D50000000C9BF22AAFDB90000C93F22AAFD395F
:102D60000000000024FE1C3DC78AD83C1E67383D89
:102D70001B93993DAFAA2A3E10EE100A10B510EE33
:102D8000901A4FF0684202EB40032DED028BB3F135
:102D9000654F3CBF02EB4102B2F1654F7CD200BFF0
:102DA000C0F3C753C1F3C7529A1A1B2A09DD10F0AA
:102DB000004F14BF9FED6E0A9FED6E0ABDEC028BB3
:102DC00010BD12F11A0F1BDA11F0004F09D010F0EC
:102DD000004F0CBF9FED680A9FED680ABDEC028BA7
:102DE00010BD80EE208A18EE100AFFF70BFF0428B2
:102DF00008BF00F023FCB0EE480ABDEC028B10BD0A
:102E00004200B2EB410F37D910F0004F19BFDFED90
:102E10005C1A9FED5C1ADFED5C1A9FED5C1AB0EE58
:102E2000602A0A46F1EE400A80F00041B0EE420A04
:102E300010460A1A5200B2F1807F34D2484010F096
:102E4000004FDFED532A9FED533A1DBFBEEE002A1F
:102E500071EEE21A31EE431AB6EE002A04BF71EEAB
:102E6000A21A31EE031AF0EE402A42EE602A40EE3A
:102E7000020A82EEA02A18E011F0004F04BF9FED75
:102E8000461AF0EE411AD4D010F0004F1CBFDFED0F
:102E9000431A9FED431A00E026E004BFDFED411A1C
:102EA0009FED411AC5E780EE202A22EE020ADFEDEF
:102EB0003F0ADFED3F2ABDEC028B40EE202ADFED1A
:102EC0003D0A40EE220ADFED3C2A40EE202ADFEDEB
:102ED0003B0A40EE220A22EE000A00EE201A31EEF2
:102EE000020A30EE210A10BD4FF07F42B2EB400FD4
:102EF00028BFB2EB410F05D2BDEC028BBDE81040FC
:102F000000F091BB40EA01035B0008BF41F0FF41C4
:102F10000BD0B2EB400F08BFB2EB410F08D120F04D
:102F2000804000EE100A21F0804100EE901A37E751
:102F3000B2EB400F12BF5FEA410240F0FF4001F0E8
:102F400000413FF42DAF4A0092EA40033FF528AF1D
:102F5000002AACBF9FED1A1A9FED1A1A20EE010A43
:102F600060EE810A10EE100A10EE901A18E70000C9
:102F7000DB0FC9BFDB0FC93FDB0F4940DB0F49C087
:102F80000000C9BF22AAFDB90000C93F22AAFD392D
:102F90000060ED3EC30ACE3700000000000049C0CB
:102FA00022AA7DBA0000494022AA7D3A2DAD65BD16
:102FB0008FB8D53D0FB511BE61C84C3EA8AAAABEB8
:102FC0000000804F0000802F70B5D94B00242DEDFC
:102FD000020B2DED108BDDE91010984205DA20F080
:102FE00000429A4201D809D141B19DED100BBDECD0
:102FF000108B02B0BDE8704000F0F6BAB0F5801F4B
:1030000026DA11430BD0002813DA012000F02EFB42
:10301000BDEC108B02B0BDE8704000F0F1BA0220A8
:1030200000F024FB00F0C8FA51EC100B81F00041D5
:103030009EE06FF035049FEDC00B53EC102B9DED1F
:10304000100B51EC100BFDF7A5F9CDE91001084666
:1030500004EB2051C0F31304B948A1F2FF3120441E
:1030600000F4801080F07F6282F04052224301EB36
:1030700020559FEDB50B119253EC102B9DED100BCD
:1030800051EC100BFDF780F941EC180BA01CC0F3BC
:1030900013009FEDAFDB9FEDB0EBB14E7E440328F4
:1030A0006CD296ED000B51EC180B53EC102BFDF786
:1030B00075FB1DD1002D01BF96ED000BBDEC108BF3
:1030C00002B070BD2846FDF716FB41EC180B53EC1F
:1030D0001D2BFDF75FF941EC190B53EC1E2B51EC46
:1030E000180BFDF757F953EC192BFDF7ACF83FE03F
:1030F0009FED9D0B51EC180B53EC102BFDF74AF98B
:103100009FED9B1B53EC112BFDF741F941EC190B83
:1031100053EC182B51EC180BFDF73CF953EC192B21
:10312000FDF738F941EC190B002D04BF53EC192BB6
:1031300051EC180B1AD02846FDF7DDFA41EC1A0BBA
:1031400053EC1D2BFDF726F953EC192BFDF71FF956
:1031500053EC182BFDF718F941EC180B53EC1E2B10
:1031600051EC1A0BFDF716F953EC182BFDF70CF97F
:10317000BDEC108B02B041EC100B70BD9FED7E0BCF
:1031800051EC180B53EC102BFDF75DF841EC100BD4
:1031900051EC180B53EC102BFDF76EF941EC190BA9
:1031A0002846FDF7A8FA41EC1B0B53EC192B51EC08
:1031B000190BFDF7EFF841EC1A0B714853EC1A2B81
:1031C000261851EC1A0BFDF7E5F841EC1F0B6D4882
:1031D000C4F1510404F5D724B0EE4F0AF0EE6F0AA3
:1031E0000321784400F06CF953EC1F2B51EC100BC9
:1031F000FDF7D0F841EC1C0B6348B0EE4F0AF0EE3F
:103200006F0A0421784400F05BF953EC1A2B51EC5F
:10321000100BFDF7BFF8344353EC1C2BFDF713F8EC
:1032200041EC1C0B002C4CDD9FED510B51EC180BAD
:1032300053EC102BFDF7AEF853EC182BFDF7AAF862
:1032400041EC1A0B55B353EC1D2B51EC1B0BFDF746
:10325000A1F841EC1D0B53EC1C2B51EC1A0BFCF7A5
:10326000F2FF53EC192BFDF795F853EC1D2BFCF7EF
:10327000EAFF53EC1A2BFDF78AF853EC182BFDF7F5
:1032800083F841EC180B53EC1E2B51EC1B0BFDF794
:1032900081F853EC182BFDF777F869E753EC1C2BFA
:1032A00051EC1A0BFCF7CFFF53EC192BFDF772F81A
:1032B00053EC1A2BFDF76BF853EC182BFDF767F85E
:1032C00056E735B353EC1D2B51EC1B0BFDF762F8A1
:1032D00041EC1A0B53EC1C2B51EC180BFDF754F876
:1032E00053EC192BFDF756F853EC1A2BFDF74CF85D
:1032F00053EC182BFDF748F841EC180B53EC1E2B40
:1033000051EC1B0BFDF746F853EC182BFDF73CF87E
:103310002EE753EC1C2B51EC180BFDF735F853EC52
:10332000192BFDF737F853EC182BFDF730F81FE792
:103330000000F07F0000000000000000000050438B
:10334000645F090000000000000000000000F03F82
:10335000763C7935EF39EA3D0000E0FE422EE63F4B
:103360002810000000000000555555555555D53F13
:10337000000000000000E03F0000000000000040EE
:1033800086EBF9FFAA0E0000A00E0000000000006E
:1033900070B5414A00252DED020B2DED048BDDE9C2
:1033A0000404944205DA24F00041914201D809D185
:1033B00040B19DED040BBDEC048B02B0BDE8704044
:1033C00000F012B9B4F5801F26DA08430BD0002CA8
:1033D00013DA012000F04AF9BDEC048B02B0BDE81D
:1033E000704000F00DB9022000F040F900F0E4F860
:1033F00051EC100B81F0004146E09FED290B6FF07E
:10340000350553EC102B9DED040B51EC100BFCF724
:10341000C1FFCDE904010C4605EB2450A0F2FF30BA
:10342000C10F40F2FF32521A62F31F540844FDF7F5
:1034300062F905949DED040B41EC180B51EC100B57
:1034400000F096FD9FED181B53EC112BFCF7A2FF2B
:103450009FED170B41EC190B53EC102B51EC180B93
:10346000FCF798FF53EC192BFCF7EDFE9FED120BC8
:1034700041EC190B53EC102B51EC180BFCF78AFFA5
:1034800053EC192BFCF7DFFEBDEC048B02B041ECD2
:10349000100B70BD000000000000F07F0000000075
:1034A00000000000000050430EE526157BCBDB3FFB
:1034B000362BF111F3FE593D00609F501344D33F6A
:1034C00070B504462DED028B4D1E00EBC500B0EE2D
:1034D000408AF0EE608A90ED000B35F0060017D0C0
:1034E00053EC182B51EC100BFCF754FF41EC100B74
:1034F0006D1E04EBC50090ED001B51EC100B53EC5E
:10350000112BFCF7A0FE41EC100B35F00600E7D1C3
:10351000022D36D0042D1CD0062D1CBFBDEC028B15
:1035200070BD53EC182B51EC100BFCF733FF94EDEE
:103530000A1B53EC112BFCF786FE53EC182BFCF7FF
:1035400029FF94ED081B53EC112BFCF77CFE41EC9A
:10355000100B53EC182B51EC100BFCF71BFF94EDE8
:10356000061B53EC112BFCF76EFE53EC182BFCF7EB
:1035700011FF94ED040B53EC102BFCF764FE41ECAF
:10358000100B53EC182B51EC100BFCF703FF94EDD0
:10359000021B53EC112BFCF756FE53EC182BFCF7D7
:1035A000F9FE94ED001B53EC112BFCF74CFEBDEC27
:1035B000028B41EC100B70BD9FED070B10B553EC67
:1035C000102B9FED070B51EC100BFCF755FF41EC56
:1035D000100B10BD00000000000000000000000003
:1035E000000000000000F03F10B553EC102B51EC30
:1035F000100BFCF728FE41EC100B10BD0000000082
:103600009FED050B10B553EC102B51EC100BFCF794
:1036100033FF41EC100B10BD000000000000000063
:1036200030EE000A704730EE200A7047DFED020AE4
:1036300080EEA00A70470000000000009FED020A23
:1036400020EE000A704700000000001002E008C8E9
:10365000121F08C1002AFAD170477047002001E00C
:1036600001C1121F002AFBD1704700000149086008
:10367000704700007C0000202DE9FF5F82B0002130
:10368000DDE90430020DDDF840B0034318D044F604
:103690001050A2F2FF3242431514119801281FD096
:1036A000A5EB0B00401C5FEA000A4FF000064E4FEE
:1036B000DFF83891B046504615D5CAF1000413E042
:1036C000119801244AA3012801D16FEA0B01029845
:1036D000119AC0E90031C0E9024206B0BDE8F09F8E
:1036E000CBF10000DFE704460021404A491842EBD5
:1036F0000450CDE9001012E0E00707D032463B4607
:1037000040464946FCF746FE8046894632463B46DF
:1037100010461946FCF73EFE06460F466410002C84
:10372000EAD1DDE90401DDE90023BAF1000F06DA90
:10373000FCF730FE42464B46FCF72CFE05E0FCF75A
:103740009BFE42464B46FCF797FE04460E4600227F
:10375000284BFCF7F9FF03D84FF0FF30014607E094
:103760000022254B20463146FCF76DFDFCF7D4FFC7
:10377000102409E0002C0ADB0A220023FCF720FDBC
:10378000039B30321A55641E50EA0102F2D1641CC8
:10379000039AC4F111031444119A012A03D001229F
:1037A00008430DD10AE0084304D000204FF0110B6C
:1037B000119072E7A3EB0B056D1E0DE05B4504DD78
:1037C0004FF0000205F1010504E003DA4FF00002BA
:1037D000A5F10105002AECD002981199C0E9023147
:1037E000C0E9004579E70000000014400000F03F08
:1037F000300000000000F0430000E03F2DE9FF4FE3
:1038000095B09B468946064600250FE2252877D1CC
:1038100000242746F84A0121059400E0044316F8E5
:10382000013F203B01FA03F01042F7D130782A28FB
:1038300011D06FF02F033078A0F13002092A16D88A
:10384000059A44F0020402EB820203EB42021044A8
:10385000761C0590EFE759F8042B0592002A03DA4D
:10386000504244F40054059044F00204761C307831
:103870002E2816D116F8010F44F004042A280DD082
:103880006FF02F023078A0F13003092B09D807EB35
:10389000870302EB4303C718761CF3E759F8047B50
:1038A000761C30786C280FD006DC4C2817D068289E
:1038B0000DD06A2814D104E0742810D07A280FD1D2
:1038C0000DE044F400140AE044F4801401E044F4F0
:1038D00040147278824202D104F58014761C761C62
:1038E000307866280BD013DC582877D009DC002804
:1038F00075D04528F6D04628F4D047281AD19DE146
:1039000018E0632835D0642879D0652812D195E174
:10391000702873D008DC6728F1D069286FD06E2832
:103920000DD06F2806D1B5E073282CD0752875D03E
:10393000782874D05A46179990476D1C75E1C4F3E6
:103940000250022809D003280DD0D9F8001004280D
:103950000DD00D6009F1040967E1D9F80010EA17EC
:10396000C1E90052F6E7D9F800100D80F2E70D70BA
:10397000F0E719F8041B8DF8001000208DF8010005
:10398000EA46012003E059F804AB4FF0FF3061072D
:103990004FF0000102D40DE008F101018846B94260
:1039A0000FDA8045F8DB1AF808100029F4D108E096
:1039B00008F1010188468142FADB1AF80810002953
:1039C000F6D105985B46A0EB080721463846179AC2
:1039D00000F094FA284400EB080507E04DE029E1E7
:1039E0000DE01AF8010B5A4617999047B8F10108F3
:1039F000F7D25B4621463846179A13E142E00A2285
:103A00000092C4F302524FF0000A022A08D059F87B
:103A100004CB032A4FEAEC710AD00DE029E02AE03A
:103A200009F1070121F00702F2E802C1914609E01D
:103A30000FFA8CFC4FEAEC71042A03D14FFA8CFC8C
:103A40004FEAEC71002907DA0A460021DCF1000C8C
:103A500061EB02012D2202E0220504D52B228DF814
:103A60000420012203E0E20701D02022F7E790467C
:103A700059E00A2102E010220DE010214FF0000A67
:103A800000910BE010224FF0000A44F004040827D4
:103A9000009203E008224FF0000A0092C4F30252A1
:103AA000022A05D059F804CB0021032A08D009E0E6
:103AB00009F1070121F00702F2E802C1914605E091
:103AC0001FFA8CFC042A01D10CF0FF0C4FF0000807
:103AD000220728D5702806D0009B83F0100353EAF4
:103AE0000A0305D00EE040228DF80420012208E0F0
:103AF0005CEA010206D030228DF804208DF8050022
:103B000002229046009B83F0080353EA0A030AD17D
:103B10005CEA010201D1620705D530228DF804204C
:103B20004FF001087F1E582804D034A003900EA83F
:103B300002900DE036A0F9E753466046009AFCF784
:103B40003FFB84460398825C0298401E02900270FC
:103B50005CEA0100F0D1029806A9081A00F1200AD7
:103B6000600702D524F4803400E00127574502DDC8
:103B7000A7EB0A0000E0002000EB0A010090059886
:103B80004144401A0590E00306D45B462146179A4B
:103B9000059800F0B3F90544002706E001A85A464D
:103BA000C05D179990476D1C7F1C4745F6DBE0030D
:103BB0000CD55B462146179A059800F09FF90544FD
:103BC00004E030205A46179990476D1C0099481E12
:103BD00000900029F5DC08E0029802995A46007826
:103BE000491C0291179990476D1CBAF10001AAF186
:103BF000010AF1DC65E100000928010030313233AF
:103C00003435363738396162636465660000000018
:103C10003031323334353637383941424344454602
:103C20000000000000F058F90544761C30780028A8
:103C30007FF4ECAD19B02846BDE8F08F620700D4E0
:103C4000062709F1070222F0070CFCE80223E146EF
:103C500003F000485FEA080C02D00FF2702C0DE070
:103C60005FEA045C02D50FF2682C07E05FEAC47CCF
:103C700002D00FF2602C01E0AFF2700C4FF0FF3871
:103C800023F00043CDF850C065280CD006DC452851
:103C900009D046281DD047283DD13DE0662818D0E0
:103CA00067287ED138E00021112F01DB112000E0D0
:103CB000781CCDE9000106A90EA8FFF7DDFCDDE9BF
:103CC0000F010E9A03910021009207F1010A04915D
:103CD0004DE04FF000400097CDE9011006A90EA875
:103CE000FFF7CAFCDDE90F0203920E9B1199002237
:103CF000DDF80CA00093049211B9791C00EB010AC5
:103D0000B7EB0A0004D4C0F1FF3007F1010A0490B8
:103D1000AAEB0700019044E0012F00DA01270021FF
:103D2000112F01DD112000E03846CDE9000106A980
:103D30000EA8FFF7A1FCDDE90F010E9A0391002107
:103D400004910092BA4621070CD40399514500DA38
:103D50008A46BAF1010F05DD009AAAF10101515C12
:103D6000302908D0B84202DA10F1040F06DA012136
:103D7000CDE9011015E0AAF10101E9E7002805DC11
:103D8000049901440491AAEB000102E0411C514551
:103D900000DD8A460499401A401C01904FF0004013
:103DA0000290200704D40198504501DBCDF804802F
:103DB00000208DF84F0002980DF14F07B0F1004F31
:103DC00025D02B200E9002984FF0020800280CDA24
:103DD000404202902D200E9007E00A210298FCF745
:103DE000E6FB3031029007F8011DB8F10001A8F19F
:103DF0000108F2DC02980028EFD1791E0E980870B5
:103E0000307800F0200040F0450007F8020D12A8BD
:103E1000C01B00F107081498007800B1012000EBE6
:103E20000A01019801EBE07105984144401A401ED7
:103E30000590E00306D45B462146179A059800F0EA
:103E40005DF805441498007818B15A4617999047C0
:103E50006D1CE00324D55B462146179A059800F0B7
:103E60004DF805441CE00498002807DBDDE9030158
:103E7000884203DD0098405C179901E017993020D3
:103E80005A469047049805F10105401C049001989A
:103E9000401E019004D12E205A46179990476D1C60
:103EA000BAF10001AAF1010ADDDC05E017F8010B07
:103EB0005A46179990476D1CB8F10001A8F1010806
:103EC000F4DC5B462146179A0598ABE62D0000000E
:103ED0002B000000200000002DE9F04104460025E1
:103EE0001E461746880404D405E039462020B04712
:103EF0006D1C641EF9D52846BDE8F0812DE9F0411E
:103F0000044600251E469046C80301D5302700E030
:103F10002027880404D505E041463846B0476D1C8B
:103F2000641EF9D52846BDE8F081000013B54FF6B0
:103F3000FF73012269460248FDF7BEFA00981CBDD6
:103F4000C000002010EE100AF6EE000A074960EEED
:103F5000200AA1EB600000EE100A20EE801AF7EEB6
:103F6000080A41EE400A20EE800A7047DF59375FA9
:103F700010B541EC100BFFF727F851EC100B10BDFA
:103F80001FB5FCF769FDFEF797FBFEF72DF8FEF76E
:103F90007DF8FEF7AFF8FDF7F9FE1D48FDF7D4F800
:103FA000FDF784FEDFF86CA04FF0000954469AF844
:103FB000010058B184F801904FF480611648FCF775
:103FC00030FDFDF711FF1548FEF7B0F82078002806
:103FD000ECD0DFF8488084F80090D8F81C00FCF79B
:103FE000D3FA06460F46D8F82000FCF7CDFA04466F
:103FF0000D46D8F82400FCF7C7FA8DE8F00041EC34
:10400000100B07A053EC102BFEF7ECFDCEE70000E1
:104010008000002000000020001402404C0100201D
:104020000A0D2025662C2025662C202566200A0DE9
:104030000000000010B500EE100A2DED028BB1EE6D
:10404000C08A18EE100A20F00040C0F1FF40C00FF7
:104050000AD010EE100A20F00040C0F1FF40C00F5F
:1040600004BF0120FFF702FB18EE100ABDEC028B23
:1040700010BD00000000000000000102030406075C
:104080000809000000000102030400000000000015
:1040900004FA97999999D93FAF788E1DC571CC3F95
:1040A0009FC678D0099AC33F935555555555E53F5E
:1040B000599322942449D23FDE03CB966446C73FEE
:1040C00044523EDF12F1C23F000000000000000039
:1040D000F040000800000020800000004C3600087E
:1040E0007041000880000020880800005C3600084D
:1040F00000000000000000000100000010000000AF
:10410000000000000024F4000000803F00000000D8
:10411000000000000000000000000000000000009F
:1041200000000000000100010000803F35AAE3BF4D
:1041300067014D3FAF9FB53BAF9F353CAF9FB53B50
:104140000000803FA01F41C0DD7560408D7CECBF4A
:104150005CDBBD3EE561533AE561533B6C899E3BB8
:10416000E561533BE561533A0000000000000000A8
:040000050800018965
:00000001FF
